:200000007580FF7590FF75A0FF75B0FF780A12013D1201561201771201A01201D112020A36
:2000200012024B1202941202E512033E12039F1204081204791204F21205731205811206CA
:200040009512072A1207B712083C1208B912092E12099B120A00120A5D120AB2120AFF1240
:200060000B44120B7D120BAE120BD7120BF8D2A07538C81224AF120C11120C2A120C4B1205
:200080000C74120CA5120CDE120D1F120D68120DB9120E12120E73120EDC120F4D120FC66E
:2000A0001210471210551211691211FE12128B12131012138D12140212146F1214D412153F
:2000C000311215861215D31216181216511216821216AB1216CCD2B71216E5121706121730
:2000E000311217661217A51217EE12184112189E1219051219761219F1121A7A121B0D1249
:200100001BAA121C51121C65121DBD121E78121F29121FD012206D1221001221891222084F
:2001200012227D1222E81223491223A01223E912242812245D122488D2B702000C7580FF47
:2001400075A0FF7538011224AFC2807538101224AFD8EA780A227580FF75A0FF75380112E6
:2001600024AFC2817538011224AFC28075380F1224AFD8E2780A227580FF75A0FF753801DF
:200180001224AFC2827538011224AFC2817538011224AFC28075380E1224AFD8DA780A2295
:2001A0007580FF75A0FF7538011224AFC2837538011224AFC2827538011224AFC281753805
:2001C000011224AFC28075380D1224AFD8D2780A227580FF75A0FF7538011224AFC28475B4
:2001E00038011224AFC2837538011224AFC2827538011224AFC2817538011224AFC28075A5
:20020000380C1224AFD8CA780A227580FF75A0FF7538011224AFC2857538011224AFC284B4
:200220007538011224AFC2837538011224AFC2827538011224AFC2817538011224AFC28064
:2002400075380B1224AFD8C2780A227580FF75A0FF7538011224AFC2867538011224AFC28B
:20026000857538011224AFC2847538011224AFC2837538011224AFC2827538011224AFC21C
:20028000817538011224AFC28075380A1224AFD8BA780A227580FF75A0FF7538011224AF9B
:2002A000C2877538011224AFC2867538011224AFC2857538011224AFC2847538011224AFD4
:2002C000C2837538011224AFC2827538011224AFC2817538011224AFC2807538091224AFBC
:2002E000D8B2780A227580FF75A0FF7538011224AFC2A77538011224AFC28775380112240C
:20030000AFC2867538011224AFC2857538011224AFC2847538011224AFC283753801122477
:20032000AFC2827538011224AFC2817538011224AFC2807538081224AFD8AA780A2275806A
:20034000FF75A0FF7538011224AFC2A67538011224AFC2A77538011224AFC28775380112F7
:2003600024AFC2867538011224AFC2857538011224AFC2847538011224AFC2837538011217
:2003800024AFC2827538011224AFC2817538011224AFC2807538071224AFD8A2780A22756F
:2003A00080FF75A0FF7538011224AFC2A57538011224AFC2A67538011224AFC2A77538010B
:2003C0001224AFC2877538011224AFC2867538011224AFC2857538011224AFC284753801B3
:2003E0001224AFC2837538011224AFC2827538011224AFC2817538011224AFC2807538069E
:200400001224AFD89A780A227580FF75A0FF7538011224AFC2A47538011224AFC2A5753839
:20042000011224AFC2A67538011224AFC2A77538011224AFC2877538011224AFC28675380E
:20044000011224AFC2857538011224AFC2847538011224AFC2837538011224AFC28275383A
:20046000011224AFC2817538011224AFC2807538051224AFD892780A227580FF75A0FF755C
:2004800038011224AFC2A37538011224AFC2A47538011224AFC2A57538011224AFC2A67576
:2004A00038011224AFC2A77538011224AFC2877538011224AFC2867538011224AFC28575AF
:2004C00038011224AFC2847538011224AFC2837538011224AFC2827538011224AFC28175BE
:2004E00038011224AFC2807538041224AFD88A780A227580FF75A0FF7538011224AFC2A201
:200500007538011224AFC2A37538011224AFC2A47538011224AFC2A57538011224AFC2A6F5
:200520007538011224AFC2A77538011224AFC2877538011224AFC2867538011224AFC2852E
:200540007538011224AFC2847538011224AFC2837538011224AFC2827538011224AFC2813D
:200560007538011224AFC2807538031224AFD882780A227580FF75A0FF12058FD8F5780A16
:20058000227580FF75A0FF12060ED8F5780A227538011224AFC2A17538011224AFC2A27538
:2005A00038011224AFC2A37538011224AFC2A47538011224AFC2A57538011224AFC2A67555
:2005C00038011224AFC2A77538011224AFC2877538011224AFC2867538011224AFC285758E
:2005E00038011224AFC2847538011224AFC2837538011224AFC2827538011224AFC281759D
:2006000038011224AFC2807538021224AF227538011224AFC2A07538011224AFC2A175382C
:20062000011224AFC2A27538011224AFC2A37538011224AFC2A47538011224AFC2A57538D8
:20064000011224AFC2A67538011224AFC2A77538011224AFC2877538011224AFC2867538EC
:20066000011224AFC2857538011224AFC2847538011224AFC2837538011224AFC282753818
:20068000011224AFC2817538011224AFC2807538011224AF227580FF75A0FF7538011224BB
:2006A000AF1206A9D8EF780A22C2A07538011224AFC2A17538011224AFC2A275380112242C
:2006C000AFC2A37538011224AFC2A47538011224AFC2A57538011224AFC2A6753801122434
:2006E000AFC2A77538011224AFC2877538011224AFC2867538011224AFC28575380112246D
:20070000AFC2847538011224AFC2837538011224AFC2827538011224AFC28175380112247B
:20072000AFC2807538011224AF227580FF75A0FF7538021224AF12073ED8EF780A22C2A053
:200740007538011224AFC2A17538011224AFC2A27538011224AFC2A37538011224AFC2A4BB
:200760007538011224AFC2A57538011224AFC2A67538011224AFC2A77538011224AFC287AC
:200780007538011224AFC2867538011224AFC2857538011224AFC2847538011224AFC283F3
:2007A0007538011224AFC2827538011224AFC2817538011224AF227580FF75A0FF7538031F
:2007C0001224AF1207CBD8EF780A22C2A07538011224AFC2A17538011224AFC2A2753801E8
:2007E0001224AFC2A37538011224AFC2A47538011224AFC2A57538011224AFC2A675380113
:200800001224AFC2A77538011224AFC2877538011224AFC2867538011224AFC2857538014B
:200820001224AFC2847538011224AFC2837538011224AFC2827538011224AF227580FF75C0
:20084000A0FF7538041224AF120850D8EF780A22C2A07538011224AFC2A17538011224AFA3
:20086000C2A27538011224AFC2A37538011224AFC2A47538011224AFC2A57538011224AF96
:20088000C2A67538011224AFC2A77538011224AFC2877538011224AFC2867538011224AFAA
:2008A000C2857538011224AFC2847538011224AFC2837538011224AF227580FF75A0FF750E
:2008C00038051224AF1208CDD8EF780A22C2A07538011224AFC2A17538011224AFC2A275E0
:2008E00038011224AFC2A37538011224AFC2A47538011224AFC2A57538011224AFC2A67512
:2009000038011224AFC2A77538011224AFC2877538011224AFC2867538011224AFC285754A
:2009200038011224AFC2847538011224AF227580FF75A0FF7538061224AF120942D8EF7862
:200940000A22C2A07538011224AFC2A17538011224AFC2A27538011224AFC2A37538011264
:2009600024AFC2A47538011224AFC2A57538011224AFC2A67538011224AFC2A7753801128D
:2009800024AFC2877538011224AFC2867538011224AFC2857538011224AF227580FF75A0C8
:2009A000FF7538071224AF1209AFD8EF780A22C2A07538011224AFC2A17538011224AFC2BD
:2009C000A27538011224AFC2A37538011224AFC2A47538011224AFC2A57538011224AFC235
:2009E000A67538011224AFC2A77538011224AFC2877538011224AFC2867538011224AF22E9
:200A00007580FF75A0FF7538081224AF120A14D8EF780A22C2A07538011224AFC2A1753894
:200A2000011224AFC2A27538011224AFC2A37538011224AFC2A47538011224AFC2A57538D4
:200A4000011224AFC2A67538011224AFC2A77538011224AFC2877538011224AF227580FFC7
:200A600075A0FF7538091224AF120A71D8EF780A22C2A07538011224AFC2A1753801122493
:200A8000AFC2A27538011224AFC2A37538011224AFC2A47538011224AFC2A5753801122474
:200AA000AFC2A67538011224AFC2A77538011224AF227580FF75A0FF75380A1224AF120AAE
:200AC000C6D8EF780A22C2A07538011224AFC2A17538011224AFC2A27538011224AFC2A39E
:200AE0007538011224AFC2A47538011224AFC2A57538011224AFC2A67538011224AF2275DE
:200B000080FF75A0FF75380B1224AF120B13D8EF780A22C2A07538011224AFC2A175380104
:200B20001224AFC2A27538011224AFC2A37538011224AFC2A47538011224AFC2A5753801D3
:200B40001224AF227580FF75A0FF75380C1224AFC2A07538011224AFC2A17538011224AFFD
:200B6000C2A27538011224AFC2A37538011224AFC2A47538011224AFD8CA780A227580FF53
:200B800075A0FF75380D1224AFC2A07538011224AFC2A17538011224AFC2A275380112246F
:200BA000AFC2A37538011224AFD8D2780A227580FF75A0FF75380E1224AFC2A07538011276
:200BC00024AFC2A17538011224AFC2A27538011224AFD8DA780A227580FF75A0FF75380F3B
:200BE0001224AFC2A07538011224AFC2A17538011224AFD8E2780A227580FF75A0FF753812
:200C0000101224AFC2A07538011224AFD8EA780A227590FF75B0FF7538011224AFC2907502
:200C200038101224AFD8EA780A227590FF75B0FF7538011224AFC2917538011224AFC2902E
:200C400075380F1224AFD8E2780A227590FF75B0FF7538011224AFC2927538011224AFC231
:200C6000917538011224AFC29075380E1224AFD8DA780A227590FF75B0FF7538011224AF4D
:200C8000C2937538011224AFC2927538011224AFC2917538011224AFC29075380D1224AFAE
:200CA000D8D2780A227590FF75B0FF7538011224AFC2947538011224AFC293753801122409
:200CC000AFC2927538011224AFC2917538011224AFC29075380C1224AFD8CA780A2275905D
:200CE000FF75B0FF7538011224AFC2957538011224AFC2947538011224AFC2937538011256
:200D000024AFC2927538011224AFC2917538011224AFC29075380B1224AFD8C2780A227591
:200D200090FF75B0FF7538011224AFC2967538011224AFC2957538011224AFC29475380194
:200D40001224AFC2937538011224AFC2927538011224AFC2917538011224AFC29075380AF0
:200D60001224AFD8BA780A227590FF75B0FF7538011224AFC2977538011224AFC2967538AC
:200D8000011224AFC2957538011224AFC2947538011224AFC2937538011224AFC2927538B1
:200DA000011224AFC2917538011224AFC2907538091224AFD8B2780A227590FF75B0FF75AF
:200DC00038011224AFC2B07538011224AFC2977538011224AFC2967538011224AFC295754D
:200DE00038011224AFC2947538011224AFC2937538011224AFC2927538011224AFC2917555
:200E000038011224AFC2907538081224AFD8AA780A227590FF75B0FF7538011224AFC2B174
:200E20007538011224AFC2B07538011224AFC2977538011224AFC2967538011224AFC295EC
:200E40007538011224AFC2947538011224AFC2937538011224AFC2927538011224AFC291F4
:200E60007538011224AFC2907538071224AFD8A2780A227590FF75B0FF7538011224AFC259
:200E8000B27538011224AFC2B17538011224AFC2B07538011224AFC2977538011224AFC254
:200EA000967538011224AFC2957538011224AFC2947538011224AFC2937538011224AFC28C
:200EC000927538011224AFC2917538011224AFC2907538061224AFD89A780A227590FF758E
:200EE000B0FF7538011224AFC2B37538011224AFC2B27538011224AFC2B17538011224AF9B
:200F0000C2B07538011224AFC2977538011224AFC2967538011224AFC2957538011224AF0B
:200F2000C2947538011224AFC2937538011224AFC2927538011224AFC2917538011224AF13
:200F4000C2907538051224AFD892780A227590FF75B0FF7538011224AFC2B4753801122485
:200F6000AFC2B37538011224AFC2B27538011224AFC2B17538011224AFC2B0753801122457
:200F8000AFC2977538011224AFC2967538011224AFC2957538011224AFC2947538011224A7
:200FA000AFC2937538011224AFC2927538011224AFC2917538011224AFC290753804122494
:200FC000AFD88A780A227590FF75B0FF7538011224AFC2B57538011224AFC2B47538011261
:200FE00024AFC2B37538011224AFC2B27538011224AFC2B17538011224AFC2B075380112D7
:2010000024AFC2977538011224AFC2967538011224AFC2957538011224AFC2947538011226
:2010200024AFC2937538011224AFC2927538011224AFC2917538011224AFC2907538031214
:2010400024AFD882780A227590FF75B0FF121063D8F5780A227590FF75B0FF1210E2D8F5A8
:20106000780A227538011224AFC2B67538011224AFC2B57538011224AFC2B47538011224CA
:20108000AFC2B37538011224AFC2B27538011224AFC2B17538011224AFC2B0753801122436
:2010A000AFC2977538011224AFC2967538011224AFC2957538011224AFC294753801122486
:2010C000AFC2937538011224AFC2927538011224AFC2917538011224AFC290753802122475
:2010E000AF227538011224AFC2B77538011224AFC2B67538011224AFC2B57538011224AF6B
:20110000C2B47538011224AFC2B37538011224AFC2B27538011224AFC2B17538011224AFB1
:20112000C2B07538011224AFC2977538011224AFC2967538011224AFC2957538011224AFE9
:20114000C2947538011224AFC2937538011224AFC2927538011224AFC2917538011224AFF1
:20116000C2907538011224AF227590FF75B0FF7538011224AF12117DD8EF780A22C2B775B4
:2011800038011224AFC2B67538011224AFC2B57538011224AFC2B47538011224AFC2B37529
:2011A00038011224AFC2B27538011224AFC2B17538011224AFC2B07538011224AFC2977531
:2011C00038011224AFC2967538011224AFC2957538011224AFC2947538011224AFC2937569
:2011E00038011224AFC2927538011224AFC2917538011224AFC2907538011224AF227590F8
:20120000FF75B0FF7538021224AF121212D8EF780A22C2B77538011224AFC2B67538011232
:2012200024AFC2B57538011224AFC2B47538011224AFC2B37538011224AFC2B2753801128C
:2012400024AFC2B17538011224AFC2B07538011224AFC2977538011224AFC29675380112AC
:2012600024AFC2957538011224AFC2947538011224AFC2937538011224AFC29275380112CC
:2012800024AFC2917538011224AF227590FF75B0FF7538031224AF12129FD8EF780A22C2C6
:2012A000B77538011224AFC2B67538011224AFC2B57538011224AFC2B47538011224AFC204
:2012C000B37538011224AFC2B27538011224AFC2B17538011224AFC2B07538011224AFC2F4
:2012E000977538011224AFC2967538011224AFC2957538011224AFC2947538011224AFC244
:20130000937538011224AFC2927538011224AF227590FF75B0FF7538041224AF121324D8BF
:20132000EF780A22C2B77538011224AFC2B67538011224AFC2B57538011224AFC2B47538D6
:20134000011224AFC2B37538011224AFC2B27538011224AFC2B17538011224AFC2B0753873
:20136000011224AFC2977538011224AFC2967538011224AFC2957538011224AFC2947538C3
:20138000011224AFC2937538011224AF227590FF75B0FF7538051224AF1213A1D8EF780A8F
:2013A00022C2B77538011224AFC2B67538011224AFC2B57538011224AFC2B4753801122490
:2013C000AFC2B37538011224AFC2B27538011224AFC2B17538011224AFC2B07538011224F3
:2013E000AFC2977538011224AFC2967538011224AFC2957538011224AFC294753801122443
:20140000AF227590FF75B0FF7538061224AF121416D8EF780A22C2B77538011224AFC2B610
:201420007538011224AFC2B57538011224AFC2B47538011224AFC2B37538011224AFC2B28A
:201440007538011224AFC2B17538011224AFC2B07538011224AFC2977538011224AFC296AA
:201460007538011224AFC2957538011224AF227590FF75B0FF7538071224AF121483D8EF9C
:20148000780A22C2B77538011224AFC2B67538011224AFC2B57538011224AFC2B475380163
:2014A0001224AFC2B37538011224AFC2B27538011224AFC2B17538011224AFC2B075380112
:2014C0001224AFC2977538011224AFC2967538011224AF227590FF75B0FF7538081224AF6C
:2014E0001214E8D8EF780A22C2B77538011224AFC2B67538011224AFC2B57538011224AF52
:20150000C2B47538011224AFC2B37538011224AFC2B27538011224AFC2B17538011224AFAD
:20152000C2B07538011224AFC2977538011224AF227590FF75B0FF7538091224AF12154569
:20154000D8EF780A22C2B77538011224AFC2B67538011224AFC2B57538011224AFC2B47514
:2015600038011224AFC2B37538011224AFC2B27538011224AFC2B17538011224AFC2B07551
:2015800038011224AF227590FF75B0FF75380A1224AF12159AD8EF780A22C2B775380112E2
:2015A00024AFC2B67538011224AFC2B57538011224AFC2B47538011224AFC2B37538011205
:2015C00024AFC2B27538011224AFC2B17538011224AF227590FF75B0FF75380B1224AF1232
:2015E00015E7D8EF780A22C2B77538011224AFC2B67538011224AFC2B57538011224AFC2A1
:20160000B47538011224AFC2B37538011224AFC2B27538011224AF227590FF75B0FF75387D
:201620000C1224AFC2B77538011224AFC2B67538011224AFC2B57538011224AFC2B4753875
:20164000011224AFC2B37538011224AFD8CA780A227590FF75B0FF75380D1224AFC2B775A1
:2016600038011224AFC2B67538011224AFC2B57538011224AFC2B47538011224AFD8D2780C
:201680000A227590FF75B0FF75380E1224AFC2B77538011224AFC2B67538011224AFC2B5C8
:2016A0007538011224AFD8DA780A227590FF75B0FF75380F1224AFC2B77538011224AFC2AA
:2016C000B67538011224AFD8E2780A227590FF75B0FF7538101224AFC2B77538011224AF8D
:2016E000D8EA780A227580FF7590FF75A0FF75B0FF7538011224AFC280C29075381012243A
:20170000AFD8E2780A227580FF7590FF75A0FF75B0FF7538011224AFC281C29175380112A3
:2017200024AFC280C29075380F1224AFD8D8780A227580FF7590FF75A0FF75B0FF7538016F
:201740001224AFC282C2927538011224AFC281C2917538011224AFC280C29075380E1224CB
:20176000AFD8CE780A227580FF7590FF75A0FF75B0FF7538011224AFC283C2937538011253
:2017800024AFC282C2927538011224AFC281C2917538011224AFC280C29075380D1224AFEF
:2017A000D8C4780A227580FF7590FF75A0FF75B0FF7538011224AFC284C2947538011224A6
:2017C000AFC283C2937538011224AFC282C2927538011224AFC281C2917538011224AFC217
:2017E00080C29075380C1224AFD8BA780A227580FF7590FF75A0FF75B0FF7538011224AF80
:20180000C285C2957538011224AFC284C2947538011224AFC283C2937538011224AFC282F7
:20182000C2927538011224AFC281C2917538011224AFC280C29075380B1224AFD8B0780A5D
:20184000227580FF7590FF75A0FF75B0FF7538011224AFC286C2967538011224AFC285C267
:20186000957538011224AFC284C2947538011224AFC283C2937538011224AFC282C29275D7
:2018800038011224AFC281C2917538011224AFC280C29075380A1224AFD8A6780A227580BA
:2018A000FF7590FF75A0FF75B0FF7538011224AFC287C2977538011224AFC286C2967538D8
:2018C000011224AFC285C2957538011224AFC284C2947538011224AFC283C2937538011268
:2018E00024AFC282C2927538011224AFC281C2917538011224AFC280C2907538091224AF92
:20190000D89C780A227580FF7590FF75A0FF75B0FF7538011224AFC2A7C2B075380112242D
:20192000AFC287C2977538011224AFC286C2967538011224AFC285C2957538011224AFC29D
:2019400084C2947538011224AFC283C2937538011224AFC282C2927538011224AFC281C2BD
:20196000917538011224AFC280C2907538081224AFD892780A227580FF7590FF75A0FF7586
:20198000B0FF7538011224AFC2A6C2B17538011224AFC2A7C2B07538011224AFC287C29787
:2019A0007538011224AFC286C2967538011224AFC285C2957538011224AFC284C2947538E7
:2019C000011224AFC283C2937538011224AFC282C2927538011224AFC281C2917538011273
:2019E00024AFC280C2907538071224AFD888780A227580FF7590FF75A0FF75B0FF75380105
:201A00001224AF121A0BD8E9780A22C2A5C2B27538011224AFC2A6C2B17538011224AFC2A7
:201A2000A7C2B07538011224AFC287C2977538011224AFC286C2967538011224AFC285C289
:201A4000957538011224AFC284C2947538011224AFC283C2937538011224AFC282C29275F5
:201A600038011224AFC281C2917538011224AFC280C2907538061224AF227580FF7590FFD9
:201A800075A0FF75B0FF7538011224AF121A94D8E9780A22C2A4C2B37538011224AFC2A581
:201AA000C2B27538011224AFC2A6C2B17538011224AFC2A7C2B07538011224AFC287C297A1
:201AC0007538011224AFC286C2967538011224AFC285C2957538011224AFC284C2947538C6
:201AE000011224AFC283C2937538011224AFC282C2927538011224AFC281C2917538011252
:201B000024AFC280C2907538051224AF227580FF7590FF75A0FF75B0FF7538011224AF12D0
:201B20001B27D8E9780A22C2A3C2B47538011224AFC2A4C2B37538011224AFC2A5C2B275D2
:201B400038011224AFC2A6C2B17538011224AFC2A7C2B07538011224AFC287C2977538013B
:201B60001224AFC286C2967538011224AFC285C2957538011224AFC284C29475380112249C
:201B8000AFC283C2937538011224AFC282C2927538011224AFC281C2917538011224AFC253
:201BA00080C2907538041224AF227580FF7590FF75A0FF75B0FF7538011224AF121BC4D80F
:201BC000E9780A22C2A2C2B57538011224AFC2A3C2B47538011224AFC2A4C2B37538011201
:201BE00024AFC2A5C2B27538011224AFC2A6C2B17538011224AFC2A7C2B07538011224AFC8
:201C0000C287C2977538011224AFC286C2967538011224AFC285C2957538011224AFC284E5
:201C2000C2947538011224AFC283C2937538011224AFC282C2927538011224AFC281C291CD
:201C40007538011224AFC280C2907538031224AF227580FF7590FF75A0FF75B0FF121C79CF
:201C6000D8EF780A227580FF7590FF75A0FF75B0FF121D16D8EF780A227538011224AFC2C4
:201C8000A1C2B67538011224AFC2A2C2B57538011224AFC2A3C2B47538011224AFC2A4C294
:201CA000B37538011224AFC2A5C2B27538011224AFC2A6C2B17538011224AFC2A7C2B075B2
:201CC00038011224AFC287C2977538011224AFC286C2967538011224AFC285C29575380132
:201CE0001224AFC284C2947538011224AFC283C2937538011224AFC282C292753801122427
:201D0000AFC281C2917538011224AFC280C2907538021224AF227538011224AFC2A0C2B733
:201D20007538011224AFC2A1C2B67538011224AFC2A2C2B57538011224AFC2A3C2B47538AC
:201D4000011224AFC2A4C2B37538011224AFC2A5C2B27538011224AFC2A6C2B17538011226
:201D600024AFC2A7C2B07538011224AFC287C2977538011224AFC286C2967538011224AFBA
:201D8000C285C2957538011224AFC284C2947538011224AFC283C2937538011224AFC28272
:201DA000C2927538011224AFC281C2917538011224AFC280C2907538011224AF227580FFD6
:201DC0007590FF75A0FF75B0FF7538011224AF121DD7D8E9780A22C2A0C2B775380112240A
:201DE000AFC2A1C2B67538011224AFC2A2C2B57538011224AFC2A3C2B47538011224AFC228
:201E0000A4C2B37538011224AFC2A5C2B27538011224AFC2A6C2B17538011224AFC2A7C20F
:201E2000B07538011224AFC287C2977538011224AFC286C2967538011224AFC285C29575E4
:201E400038011224AFC284C2947538011224AFC283C2937538011224AFC282C292753801C2
:201E60001224AFC281C2917538011224AFC280C2907538011224AF227580FF7590FF75A0FE
:201E8000FF75B0FF7538021224AF121E92D8E9780A22C2A0C2B77538011224AFC2A1C2B61B
:201EA0007538011224AFC2A2C2B57538011224AFC2A3C2B47538011224AFC2A4C2B375382B
:201EC000011224AFC2A5C2B27538011224AFC2A6C2B17538011224AFC2A7C2B075380112A5
:201EE00024AFC287C2977538011224AFC286C2967538011224AFC285C2957538011224AF76
:201F0000C284C2947538011224AFC283C2937538011224AFC282C2927538011224AFC281F7
:201F2000C2917538011224AF227580FF7590FF75A0FF75B0FF7538031224AF121F43D8E99F
:201F4000780A22C2A0C2B77538011224AFC2A1C2B67538011224AFC2A2C2B5753801122442
:201F6000AFC2A3C2B47538011224AFC2A4C2B37538011224AFC2A5C2B27538011224AFC2A6
:201F8000A6C2B17538011224AFC2A7C2B07538011224AFC287C2977538011224AFC286C2E8
:201FA000967538011224AFC285C2957538011224AFC284C2947538011224AFC283C2937589
:201FC00038011224AFC282C2927538011224AF227580FF7590FF75A0FF75B0FF75380412A3
:201FE00024AF121FEAD8E9780A22C2A0C2B77538011224AFC2A1C2B67538011224AFC2A24E
:20200000C2B57538011224AFC2A3C2B47538011224AFC2A4C2B37538011224AFC2A5C2B2FF
:202020007538011224AFC2A6C2B17538011224AFC2A7C2B07538011224AFC287C2977538E2
:20204000011224AFC286C2967538011224AFC285C2957538011224AFC284C29475380112DA
:2020600024AFC283C2937538011224AF227580FF7590FF75A0FF75B0FF7538051224AF1265
:202080002087D8E9780A22C2A0C2B77538011224AFC2A1C2B67538011224AFC2A2C2B57508
:2020A00038011224AFC2A3C2B47538011224AFC2A4C2B37538011224AFC2A5C2B27538019D
:2020C0001224AFC2A6C2B17538011224AFC2A7C2B07538011224AFC287C2977538011224B9
:2020E000AFC286C2967538011224AFC285C2957538011224AFC284C2947538011224AF227C
:202100007580FF7590FF75A0FF75B0FF7538061224AF12211AD8E9780A22C2A0C2B77538BD
:20212000011224AFC2A1C2B67538011224AFC2A2C2B57538011224AFC2A3C2B47538011242
:2021400024AFC2A4C2B37538011224AFC2A5C2B27538011224AFC2A6C2B17538011224AF62
:20216000C2A7C2B07538011224AFC287C2977538011224AFC286C2967538011224AFC28542
:20218000C2957538011224AF227580FF7590FF75A0FF75B0FF7538071224AF1221A3D8E9D3
:2021A000780A22C2A0C2B77538011224AFC2A1C2B67538011224AFC2A2C2B57538011224E0
:2021C000AFC2A3C2B47538011224AFC2A4C2B37538011224AFC2A5C2B27538011224AFC244
:2021E000A6C2B17538011224AFC2A7C2B07538011224AFC287C2977538011224AFC286C286
:20220000967538011224AF227580FF7590FF75A0FF75B0FF7538081224AF122222D8E9781A
:202220000A22C2A0C2B77538011224AFC2A1C2B67538011224AFC2A2C2B57538011224AF28
:20224000C2A3C2B47538011224AFC2A4C2B37538011224AFC2A5C2B27538011224AFC2A6CC
:20226000C2B17538011224AFC2A7C2B07538011224AFC287C2977538011224AF227580FF9F
:202280007590FF75A0FF75B0FF7538091224AF122297D8E9780A22C2A0C2B7753801122478
:2022A000AFC2A1C2B67538011224AFC2A2C2B57538011224AFC2A3C2B47538011224AFC263
:2022C000A4C2B37538011224AFC2A5C2B27538011224AFC2A6C2B17538011224AFC2A7C24B
:2022E000B07538011224AF227580FF7590FF75A0FF75B0FF75380A1224AF122302D8E9783D
:202300000A22C2A0C2B77538011224AFC2A1C2B67538011224AFC2A2C2B57538011224AF47
:20232000C2A3C2B47538011224AFC2A4C2B37538011224AFC2A5C2B27538011224AFC2A6EB
:20234000C2B17538011224AF227580FF7590FF75A0FF75B0FF75380B1224AF122363D8E92F
:20236000780A22C2A0C2B77538011224AFC2A1C2B67538011224AFC2A2C2B575380112241E
:20238000AFC2A3C2B47538011224AFC2A4C2B37538011224AFC2A5C2B27538011224AF2222
:2023A0007580FF7590FF75A0FF75B0FF75380C1224AFC2A0C2B77538011224AFC2A1C2B606
:2023C0007538011224AFC2A2C2B57538011224AFC2A3C2B47538011224AFC2A4C2B3753806
:2023E000011224AFD8BA780A227580FF7590FF75A0FF75B0FF75380D1224AFC2A0C2B775A2
:2024000038011224AFC2A1C2B67538011224AFC2A2C2B57538011224AFC2A3C2B475380139
:202420001224AFD8C4780A227580FF7590FF75A0FF75B0FF75380E1224AFC2A0C2B775381F
:20244000011224AFC2A1C2B67538011224AFC2A2C2B57538011224AFD8CE780A227580FF7C
:202460007590FF75A0FF75B0FF75380F1224AFC2A0C2B77538011224AFC2A1C2B675380188
:202480001224AFD8D8780A227580FF7590FF75A0FF75B0FF7538101224AFC2A0C2B77538A9
:2024A000011224AFD8E2780A227538011224AF758901758CFF758A38D28C308DFDC28CC2E7
:0524C0008DD538EB2270
:00000001FF
