:020000040000FA
:100000007580FF7590FF75A0FF75B0FF780A12002C
:10001000DB1200F412011512013E12016F1201A849
:100020001201E91202321202831202DC12033D12A3
:1000300003A612041712049012051112051F1206CE
:10004000331206C81207551207DA1208571208CCE5
:1000500012093912099E1209FB120A50120A9D1246
:100060000AE2120B1B120B4C120B75120B96D2A04C
:100070007538C8121689120BAF120BC8120BE91291
:100080000C12120C43120C7C120CBD120D06120D38
:1000900057120DB0120E11120E7A120EEB120F64DF
:1000A000120FE5120FF312110712119C12122912EE
:1000B00012AE12132B1213A012140D12147212147A
:1000C000CF1215241215711215B61215EF12162043
:1000D00012164912166AD2B702000C7580FF75A07D
:1000E000FF753801121689C280753810121689D82A
:1000F000EA780A227580FF75A0FF7538011216890B
:10010000C281753801121689C28075380F1216899E
:10011000D8E2780A227580FF75A0FF7538011216A3
:1001200089C282753801121689C28175380112168A
:1001300089C28075380E121689D8DA780A2275803D
:10014000FF75A0FF753801121689C2837538011238
:100150001689C282753801121689C281753801125A
:100160001689C28075380D121689D8D2780A227580
:1001700080FF75A0FF753801121689C28475380199
:10018000121689C283753801121689C28275380128
:10019000121689C281753801121689C28075380C11
:1001A000121689D8CA780A227580FF75A0FF7538A3
:1001B00001121689C285753801121689C2847538F4
:1001C00001121689C283753801121689C2827538E8
:1001D00001121689C281753801121689C2807538DC
:1001E0000B121689D8C2780A227580FF75A0FF7598
:1001F0003801121689C286753801121689C28575B2
:100200003801121689C284753801121689C28375A5
:100210003801121689C282753801121689C2817599
:100220003801121689C28075380A121689D8BA7830
:100230000A227580FF75A0FF753801121689C287E2
:10024000753801121689C286753801121689C28561
:10025000753801121689C284753801121689C28355
:10026000753801121689C282753801121689C28149
:10027000753801121689C280753809121689D8B2EC
:10028000780A227580FF75A0FF753801121689C2A1
:10029000A7753801121689C287753801121689C2EE
:1002A00086753801121689C285753801121689C201
:1002B00084753801121689C283753801121689C2F5
:1002C00082753801121689C281753801121689C2E9
:1002D00080753808121689D8AA780A227580FF75A9
:1002E000A0FF753801121689C2A675380112168949
:1002F000C2A7753801121689C2877538011216898E
:10030000C286753801121689C285753801121689A0
:10031000C284753801121689C28375380112168994
:10032000C282753801121689C28175380112168988
:10033000C280753807121689D8A2780A227580FF04
:1003400075A0FF753801121689C2A57538011216FD
:1003500089C2A6753801121689C2A775380112160E
:1003600089C287753801121689C28675380112163E
:1003700089C285753801121689C284753801121632
:1003800089C283753801121689C282753801121626
:1003900089C281753801121689C280753806121615
:1003A00089D89A780A227580FF75A0FF75380112E6
:1003B0001689C2A4753801121689C2A575380112B2
:1003C0001689C2A6753801121689C2A7753801129E
:1003D0001689C287753801121689C28675380112CE
:1003E0001689C285753801121689C28475380112C2
:1003F0001689C283753801121689C28275380112B6
:100400001689C281753801121689C28075380512A5
:100410001689D892780A227580FF75A0FF75380179
:10042000121689C2A3753801121689C2A475380143
:10043000121689C2A5753801121689C2A67538012F
:10044000121689C2A7753801121689C2877538013C
:10045000121689C286753801121689C2857538014F
:10046000121689C284753801121689C28375380143
:10047000121689C282753801121689C28175380137
:10048000121689C280753804121689D88A780A2211
:100490007580FF75A0FF753801121689C2A27538E4
:1004A00001121689C2A3753801121689C2A47538C3
:1004B00001121689C2A5753801121689C2A67538AF
:1004C00001121689C2A7753801121689C2877538BC
:1004D00001121689C286753801121689C2857538CF
:1004E00001121689C284753801121689C2837538C3
:1004F00001121689C282753801121689C2817538B7
:1005000001121689C280753803121689D882780ABA
:10051000227580FF75A0FF12052DD8F5780A227587
:1005200080FF75A0FF1205ACD8F5780A2275380156
:10053000121689C2A1753801121689C2A275380136
:10054000121689C2A3753801121689C2A475380122
:10055000121689C2A5753801121689C2A67538010E
:10056000121689C2A7753801121689C2877538011B
:10057000121689C286753801121689C2857538012E
:10058000121689C284753801121689C28375380122
:10059000121689C282753801121689C28175380116
:1005A000121689C280753802121689227538011216
:1005B0001689C2A0753801121689C2A175380112B8
:1005C0001689C2A2753801121689C2A375380112A4
:1005D0001689C2A4753801121689C2A57538011290
:1005E0001689C2A6753801121689C2A7753801127C
:1005F0001689C287753801121689C28675380112AC
:100600001689C285753801121689C284753801129F
:100610001689C283753801121689C2827538011293
:100620001689C281753801121689C2807538011287
:100630001689227580FF75A0FF7538011216891280
:100640000647D8EF780A22C2A0753801121689C26F
:10065000A1753801121689C2A2753801121689C215
:10066000A3753801121689C2A4753801121689C201
:10067000A5753801121689C2A6753801121689C2ED
:10068000A7753801121689C287753801121689C2FA
:1006900086753801121689C285753801121689C20D
:1006A00084753801121689C283753801121689C201
:1006B00082753801121689C281753801121689C2F5
:1006C00080753801121689227580FF75A0FF753874
:1006D000021216891206DCD8EF780A22C2A07538F9
:1006E00001121689C2A1753801121689C2A2753885
:1006F00001121689C2A3753801121689C2A4753871
:1007000001121689C2A5753801121689C2A675385C
:1007100001121689C2A7753801121689C287753869
:1007200001121689C286753801121689C28575387C
:1007300001121689C284753801121689C283753870
:1007400001121689C282753801121689C281753864
:1007500001121689227580FF75A0FF7538031216E5
:1007600089120769D8EF780A22C2A07538011216DB
:1007700089C2A1753801121689C2A27538011216F4
:1007800089C2A3753801121689C2A47538011216E0
:1007900089C2A5753801121689C2A67538011216CC
:1007A00089C2A7753801121689C2877538011216D9
:1007B00089C286753801121689C2857538011216EC
:1007C00089C284753801121689C2837538011216E0
:1007D00089C282753801121689227580FF75A0FFC3
:1007E0007538041216891207EED8EF780A22C2A0D3
:1007F000753801121689C2A1753801121689C2A274
:10080000753801121689C2A3753801121689C2A45F
:10081000753801121689C2A5753801121689C2A64B
:10082000753801121689C2A7753801121689C28758
:10083000753801121689C286753801121689C2856B
:10084000753801121689C284753801121689C2835F
:10085000753801121689227580FF75A0FF7538055D
:1008600012168912086BD8EF780A22C2A0753801D7
:10087000121689C2A1753801121689C2A2753801F3
:10088000121689C2A3753801121689C2A4753801DF
:10089000121689C2A5753801121689C2A6753801CB
:1008A000121689C2A7753801121689C287753801D8
:1008B000121689C286753801121689C285753801EB
:1008C000121689C284753801121689227580FF7547
:1008D000A0FF7538061216891208E0D8EF780A22B0
:1008E000C2A0753801121689C2A175380112168985
:1008F000C2A2753801121689C2A375380112168971
:10090000C2A4753801121689C2A57538011216895C
:10091000C2A6753801121689C2A775380112168948
:10092000C287753801121689C28675380112168978
:10093000C285753801121689227580FF75A0FF7572
:10094000380712168912094DD8EF780A22C2A0750D
:100950003801121689C2A1753801121689C2A27512
:100960003801121689C2A3753801121689C2A475FE
:100970003801121689C2A5753801121689C2A675EA
:100980003801121689C2A7753801121689C28775F7
:100990003801121689C286753801121689227580AF
:1009A000FF75A0FF7538081216891209B2D8EF78C2
:1009B0000A22C2A0753801121689C2A17538011227
:1009C0001689C2A2753801121689C2A375380112A0
:1009D0001689C2A4753801121689C2A5753801128C
:1009E0001689C2A6753801121689C2A77538011278
:1009F0001689C287753801121689227580FF75A085
:100A0000FF753809121689120A0FD8EF780A22C228
:100A1000A0753801121689C2A1753801121689C253
:100A2000A2753801121689C2A3753801121689C23F
:100A3000A4753801121689C2A5753801121689C22B
:100A4000A6753801121689C2A775380112168922B7
:100A50007580FF75A0FF75380A121689120A64D8CE
:100A6000EF780A22C2A0753801121689C2A1753822
:100A700001121689C2A2753801121689C2A37538EF
:100A800001121689C2A4753801121689C2A57538DB
:100A900001121689C2A6753801121689227580FFC7
:100AA00075A0FF75380B121689120AB1D8EF780AB3
:100AB00022C2A0753801121689C2A175380112161A
:100AC00089C2A2753801121689C2A375380112169F
:100AD00089C2A4753801121689C2A575380112168B
:100AE00089227580FF75A0FF75380C121689C2A087
:100AF000753801121689C2A1753801121689C2A271
:100B0000753801121689C2A3753801121689C2A45C
:100B1000753801121689D8CA780A227580FF75A027
:100B2000FF75380D121689C2A0753801121689C2D8
:100B3000A1753801121689C2A2753801121689C230
:100B4000A3753801121689D8D2780A227580FF75EC
:100B5000A0FF75380E121689C2A0753801121689C9
:100B6000C2A1753801121689C2A275380112168900
:100B7000D8DA780A227580FF75A0FF75380F121633
:100B800089C2A0753801121689C2A17538011216E2
:100B900089D8E2780A227580FF75A0FF7538101297
:100BA0001689C2A0753801121689D8EA780A22750A
:100BB00090FF75B0FF753801121689C29075381014
:100BC000121689D8EA780A227590FF75B0FF753839
:100BD00001121689C291753801121689C2907538B2
:100BE0000F121689D8E2780A227590FF75B0FF754A
:100BF0003801121689C292753801121689C2917590
:100C00003801121689C29075380E121689D8DA7812
:100C10000A227590FF75B0FF753801121689C293CC
:100C2000753801121689C292753801121689C2915F
:100C3000753801121689C29075380D121689D8D2EE
:100C4000780A227590FF75B0FF753801121689C2B7
:100C500094753801121689C293753801121689C22B
:100C600092753801121689C291753801121689C21F
:100C70009075380C121689D8CA780A227590FF75BB
:100C8000B0FF753801121689C295753801121689A0
:100C9000C294753801121689C293753801121689EB
:100CA000C292753801121689C291753801121689DF
:100CB000C29075380B121689D8C2780A227590FF37
:100CC00075B0FF753801121689C296753801121673
:100CD00089C295753801121689C2947538011216A9
:100CE00089C293753801121689C29275380112169D
:100CF00089C291753801121689C29075380A121688
:100D000089D8BA780A227590FF75B0FF753801123C
:100D10001689C297753801121689C2967538011264
:100D20001689C295753801121689C2947538011258
:100D30001689C293753801121689C292753801124C
:100D40001689C291753801121689C2907538091238
:100D50001689D8B2780A227590FF75B0FF753801F0
:100D6000121689C2B0753801121689C297753801FA
:100D7000121689C296753801121689C29575380106
:100D8000121689C294753801121689C293753801FA
:100D9000121689C292753801121689C291753801EE
:100DA000121689C290753808121689D8AA780A22B4
:100DB0007590FF75B0FF753801121689C2B175388C
:100DC00001121689C2B0753801121689C29775389A
:100DD00001121689C296753801121689C2957538A6
:100DE00001121689C294753801121689C29375389A
:100DF00001121689C292753801121689C29175388E
:100E000001121689C290753807121689D8A2780A7D
:100E1000227590FF75B0FF753801121689C2B27540
:100E20003801121689C2B1753801121689C2B0751F
:100E30003801121689C297753801121689C2967543
:100E40003801121689C295753801121689C2947537
:100E50003801121689C293753801121689C292752B
:100E60003801121689C291753801121689C290751F
:100E70003806121689D89A780A227590FF75B0FF45
:100E8000753801121689C2B3753801121689C2B2BB
:100E9000753801121689C2B1753801121689C2B0AF
:100EA000753801121689C297753801121689C296D3
:100EB000753801121689C295753801121689C294C7
:100EC000753801121689C293753801121689C292BB
:100ED000753801121689C291753801121689C290AF
:100EE000753805121689D892780A227590FF75B068
:100EF000FF753801121689C2B4753801121689C2FD
:100F0000B3753801121689C2B2753801121689C23A
:100F1000B1753801121689C2B0753801121689C22E
:100F200097753801121689C296753801121689C252
:100F300095753801121689C294753801121689C246
:100F400093753801121689C292753801121689C23A
:100F500091753801121689C290753804121689D815
:100F60008A780A227590FF75B0FF753801121689CC
:100F7000C2B5753801121689C2B4753801121689C6
:100F8000C2B3753801121689C2B2753801121689BA
:100F9000C2B1753801121689C2B0753801121689AE
:100FA000C297753801121689C296753801121689D2
:100FB000C295753801121689C294753801121689C6
:100FC000C293753801121689C292753801121689BA
:100FD000C291753801121689C290753803121689AC
:100FE000D882780A227590FF75B0FF121001D8F5EB
:100FF000780A227590FF75B0FF121080D8F5780A34
:1010000022753801121689C2B6753801121689C2C6
:10101000B5753801121689C2B4753801121689C225
:10102000B3753801121689C2B2753801121689C219
:10103000B1753801121689C2B0753801121689C20D
:1010400097753801121689C296753801121689C231
:1010500095753801121689C294753801121689C225
:1010600093753801121689C292753801121689C219
:1010700091753801121689C29075380212168922AC
:10108000753801121689C2B7753801121689C2B6B1
:10109000753801121689C2B5753801121689C2B4A5
:1010A000753801121689C2B3753801121689C2B299
:1010B000753801121689C2B1753801121689C2B08D
:1010C000753801121689C297753801121689C296B1
:1010D000753801121689C295753801121689C294A5
:1010E000753801121689C293753801121689C29299
:1010F000753801121689C291753801121689C2908D
:10110000753801121689227590FF75B0FF75380188
:1011100012168912111BD8EF780A22C2B77538014E
:10112000121689C2B6753801121689C2B575380112
:10113000121689C2B4753801121689C2B375380106
:10114000121689C2B2753801121689C2B1753801FA
:10115000121689C2B0753801121689C29775380106
:10116000121689C296753801121689C29575380112
:10117000121689C294753801121689C29375380106
:10118000121689C292753801121689C291753801FA
:10119000121689C290753801121689227590FF7552
:1011A000B0FF7538021216891211B0D8EF780A22F2
:1011B000C2B7753801121689C2B675380112168980
:1011C000C2B5753801121689C2B475380112168974
:1011D000C2B3753801121689C2B275380112168968
:1011E000C2B1753801121689C2B07538011216895C
:1011F000C297753801121689C29675380112168980
:10120000C295753801121689C29475380112168973
:10121000C293753801121689C29275380112168967
:10122000C291753801121689227590FF75B0FF754D
:10123000380312168912123DD8EF780A22C2B77508
:101240003801121689C2B6753801121689C2B575F1
:101250003801121689C2B4753801121689C2B375E5
:101260003801121689C2B2753801121689C2B175D9
:101270003801121689C2B0753801121689C29775E5
:101280003801121689C296753801121689C29575F1
:101290003801121689C294753801121689C29375E5
:1012A0003801121689C2927538011216892275907A
:1012B000FF75B0FF7538041216891212C2D8EF7884
:1012C0000A22C2B7753801121689C2B675380112E2
:1012D0001689C2B5753801121689C2B47538011263
:1012E0001689C2B3753801121689C2B27538011257
:1012F0001689C2B1753801121689C2B0753801124B
:101300001689C297753801121689C296753801126E
:101310001689C295753801121689C2947538011262
:101320001689C293753801121689227590FF75B01F
:10133000FF75380512168912133FD8EF780A22C2BA
:10134000B7753801121689C2B6753801121689C2EE
:10135000B5753801121689C2B4753801121689C2E2
:10136000B3753801121689C2B2753801121689C2D6
:10137000B1753801121689C2B0753801121689C2CA
:1013800097753801121689C296753801121689C2EE
:1013900095753801121689C2947538011216892282
:1013A0007590FF75B0FF7538061216891213B4D800
:1013B000EF780A22C2B7753801121689C2B675389D
:1013C00001121689C2B5753801121689C2B4753872
:1013D00001121689C2B3753801121689C2B2753866
:1013E00001121689C2B1753801121689C2B075385A
:1013F00001121689C297753801121689C29675387E
:1014000001121689C295753801121689227590FF4E
:1014100075B0FF753807121689121421D8EF780AB3
:1014200022C2B7753801121689C2B6753801121674
:1014300089C2B5753801121689C2B4753801121601
:1014400089C2B3753801121689C2B27538011216F5
:1014500089C2B1753801121689C2B07538011216E9
:1014600089C297753801121689C29675380112160D
:1014700089227590FF75B0FF75380812168912140D
:1014800086D8EF780A22C2B7753801121689C2B61B
:10149000753801121689C2B5753801121689C2B4A1
:1014A000753801121689C2B3753801121689C2B295
:1014B000753801121689C2B1753801121689C2B089
:1014C000753801121689C29775380112168922756E
:1014D00090FF75B0FF7538091216891214E3D8EF22
:1014E000780A22C2B7753801121689C2B67538015A
:1014F000121689C2B5753801121689C2B475380141
:10150000121689C2B3753801121689C2B275380134
:10151000121689C2B1753801121689C2B075380128
:10152000121689227590FF75B0FF75380A12168958
:10153000121538D8EF780A22C2B775380112168909
:10154000C2B6753801121689C2B5753801121689EE
:10155000C2B4753801121689C2B3753801121689E2
:10156000C2B2753801121689C2B1753801121689D6
:10157000227590FF75B0FF75380B1216891215850C
:10158000D8EF780A22C2B7753801121689C2B6752B
:101590003801121689C2B5753801121689C2B475A0
:1015A0003801121689C2B3753801121689C2B27594
:1015B0003801121689227590FF75B0FF75380C122C
:1015C0001689C2B7753801121689C2B6753801126C
:1015D0001689C2B5753801121689C2B47538011260
:1015E0001689C2B3753801121689D8CA780A2275CD
:1015F00090FF75B0FF75380D121689C2B7753801A6
:10160000121689C2B6753801121689C2B57538012D
:10161000121689C2B4753801121689D8D2780A22F6
:101620007590FF75B0FF75380E121689C2B7753800
:1016300001121689C2B6753801121689C2B57538FD
:1016400001121689D8DA780A227590FF75B0FF75F5
:10165000380F121689C2B7753801121689C2B675CD
:101660003801121689D8E2780A227590FF75B0FF0A
:10167000753810121689C2B7753801121689D8EA62
:10168000780A227538011216897964D9FED538F99D
:1016900022FFFFFFFFFFFFFFFFFFFFFFFFFFFFFF37
:1016A000FFFFFFFFFFFFFFFFFFFFFFFFFFFFFFFF4A
:1016B000FFFFFFFFFFFFFFFFFFFFFFFFFFFFFFFF3A
:1016C000FFFFFFFFFFFFFFFFFFFFFFFFFFFFFFFF2A
:1016D000FFFFFFFFFFFFFFFFFFFFFFFFFFFFFFFF1A
:020000040001F9
:01000000E01F
:00000001FF
