S3151FFFE0006841002065E1FF1F7BE1FF1F7DE1FF1FC9
S3151FFFE01000000000000000000000000000000000DC
S3151FFFE0200000000000000000000000007FE1FF1F4E
S3151FFFE030000000000000000081E1FF1F79E4FF1FC1
S3151FFFE04085E1FF1F85E1FF1F85E1FF1F85E1FF1F9C
S3151FFFE05085E1FF1F85E1FF1F85E1FF1F85E1FF1F8C
S3151FFFE06085E1FF1F85E1FF1F85E1FF1F85E1FF1F7C
S3151FFFE07085E1FF1F85E1FF1F85E1FF1F85E1FF1F6C
S3151FFFE08085E1FF1F85E1FF1F85E1FF1F85E1FF1F5C
S3151FFFE09085E1FF1F85E1FF1F85E1FF1F85E1FF1F4C
S3151FFFE0A085E1FF1F85E1FF1F85E1FF1F85E1FF1F3C
S3151FFFE0B085E1FF1F85E1FF1F85E1FF1F85E1FF1F2C
S3151FFFE0C000F002F800F03EF80CA030C808382418FC
S3151FFFE0D02D18A246671EAB4654465D46AC4201D17C
S3151FFFE0E000F030F87E460F3E0FCCB6460126334270
S3151FFFE0F000D0FB1AA246AB4633431847D405000090
S3151FFFE100F4050000103A02D378C878C1FAD852072F
S3151FFFE11001D330C830C101D504680C6070470000B9
S3151FFFE1200023002400250026103A01D378C1FBD80F
S3151FFFE130520700D330C100D50B6070471FB51FBDF7
S3151FFFE14010B510BD00F0E6F81146FFF7F7FF00F018
S3151FFFE1508DFA00F0FEF803B4FFF7F2FF03BC00F0E1
S3151FFFE16003F900000B48854672B60B480B49016041
S3151FFFE17062B60B4880470B480047FEE7FEE7FEE700
S3151FFFE180FEE7FEE7FEE7000007480849064A084B79
S3151FFFE190704700006841002008ED00E000E0FF1F08
S3151FFFE1A0E5E5FF1FC1E0FF1F684000206841002013
S3151FFFE1B068400020002203098B422CD3030A8B429F
S3151FFFE1C011D300239C464EE003460B433CD400224B
S3151FFFE1D043088B4231D303098B421CD3030A8B425D
S3151FFFE1E001D394463FE0C3098B4201D3CB01C01A2B
S3151FFFE1F0524183098B4201D38B01C01A52414309F6
S3151FFFE2008B4201D34B01C01A524103098B4201D3E3
S3151FFFE2100B01C01A5241C3088B4201D3CB00C01A50
S3151FFFE220524183088B4201D38B00C01A52414308C8
S3151FFFE2308B4201D34B00C01A5241411A00D20146ED
S3151FFFE2405241104670475DE0CA0F00D04942031086
S3151FFFE25000D34042534000229C4603098B422DD3D5
S3151FFFE260030A8B4212D3FC22890112BA030A8B427D
S3151FFFE2700CD3890192118B4208D3890192118B42CC
S3151FFFE28004D389013AD0921100E08909C3098B4251
S3151FFFE29001D3CB01C01A524183098B4201D38B0194
S3151FFFE2A0C01A524143098B4201D34B01C01A524137
S3151FFFE2B003098B4201D30B01C01A5241C3088B427C
S3151FFFE2C001D3CB00C01A524183088B4201D38B0067
S3151FFFE2D0C01A5241D9D243088B4201D34B00C01AF1
S3151FFFE2E05241411A00D20146634652415B10104606
S3151FFFE2F001D34042002B00D54942704763465B104E
S3151FFFE30000D3404201B50020C046C04602BD70473C
S3151FFFE31070477047754600F023F8AE4605006946FD
S3151FFFE3205346C008C000854618B020B5FFF72CFF1F
S3151FFFE33060BC00274908B6460026C0C5C0C5C0C574
S3151FFFE340C0C5C0C5C0C5C0C5C0C5403D49008D4677
S3151FFFE35070470446C046C0462046FFF7FCFE000036
S3151FFFE360004870470840002001491820ABBEFEE752
S3151FFFE370260002007047002100E0491C8142FCD3A2
S3151FFFE380704700000F48806B0321090308430D499F
S3151FFFE390886388150C4948610C4948630C48006817
S3151FFFE3A00C4908600A4840680A4940310860084816
S3151FFFE3B00068084948610648406806494031486178
S3151FFFE3C0704700000080044000C0044040D0044056
S3151FFFE3D0C8E6FF1FC0F00F40002805D08100064A80
S3151FFFE3E05158064AD16005E08100034A5158034A36
S3151FFFE3F0403AD16070470000C8E6FF1F00F10F408B
S3151FFFE40010B5002819DA1A4A03071B0F083B9B088A
S3151FFFE4109B00D2588307DC0EFF23A3409A438B072B
S3151FFFE4201B0E8407E40EA3401A43114B0407240F48
S3151FFFE430083CA408A4001A5118E00E4A03231B0226
S3151FFFE440D21883089B00D2588307DC0EFF23A340F5
S3151FFFE4509A438B071B0E8407E40EA3401A43054BF3
S3151FFFE460032424021B198408A4001A5110BD00009F
S3151FFFE4701CED00E000E100E002480068401C014976
S3151FFFE480086070470040002070B54F480078C021D4
S3151FFFE4900840002868D14C48407940210840002891
S3151FFFE4A04ED14948007804210840002815D1474C12
S3151FFFE4B04548007838210840C10801208840C5B269
S3151FFFE4C029462046FFF776FE04463F48407830210F
S3151FFFE4D00840002803D0640901E00124E4033A48F9
S3151FFFE4E0C078E0210840C106C90E002926D1401178
S3151FFFE4F0030000F0ADF80805090D1115191D20239E
S3151FFFE5000520C00144431AE005200002444316E0DC
S3151FFFE5100F20C001444312E00520400244430EE092
S3151FFFE520B720800044430AE0B720C000444306E0FB
S3151FFFE5302748444303E02748444300E000BF38E031
S3151FFFE54021480079C006C00E451C29461F48FFF704
S3151FFFE55031FE04461C484079C006C00E05461835D5
S3151FFFE56020466843044624E017480078C021084028
S3151FFFE570402815D114484078C007C00F002802D184
S3151FFFE5800124E40315E01048007A0E2210404208CA
S3151FFFE5900120904001461048FFF70CFE044608E095
S3151FFFE5A009480078C0210840802801D1074C00E0A8
S3151FFFE5B070BD0A484068000F411C2046FFF7FAFD51
S3151FFFE5C00749086000BFF3E70040064000127A00C4
S3151FFFE5D095080000710B000000093D0040800440B4
S3151FFFE5E004400020002017490860012040041549F8
S3151FFFE5F0C0394860062014490870084640784021F4
S3151FFFE6000840114948700846C0788006800E2021B1
S3151FFFE61008430D49C87080200C49087000200A491D
S3151FFFE6200871487100BF08488079102108400028EB
S3151FFFE630F9D000BF044880790C2108400028F9D182
S3151FFFE640704700000081044000400640005006400E
S3151FFFE65030B47446641E2578641CAB4204D3635DD5
S3151FFFE6605B00E31830BC18471D46F8E7FFF70CFFA2
S3151FFFE6707D21C90010480068FFF79CFD0446601EF8
S3151FFFE6800E49884200D90CE0601E0D4948610321DF
S3151FFFE690081FFFF7B5FE002009498861072008619B
S3151FFFE6A000BFFFF76FFE05E00020FFF795FE054849
S3151FFFE6B0FFF761FEF8E7000004400020FFFFFF00A1
S3151FFFE6C000E000E020A1070020000000000000205E
S3151FFFE6D0F0E6FF1F004000200800000004E1FF1FB7
S3151FFFE6E0F8E6FF1F084000206001000020E1FF1F22
S30D1FFFE6F000000000000080027C
S7051FFFE0C13B
