S3151FFFE000684100204DE2FF1F63E2FF1F65E2FF1F0E
S3151FFFE01000000000000000000000000000000000DC
S3151FFFE02000000000000000000000000067E2FF1F65
S3151FFFE030000000000000000069E2FF1F6BE2FF1FE8
S3151FFFE0406DE2FF1F6DE2FF1F6DE2FF1F6DE2FF1FF8
S3151FFFE0506DE2FF1F6DE2FF1F6DE2FF1F6DE2FF1FE8
S3151FFFE0606DE2FF1F6DE2FF1F6DE2FF1F6DE2FF1FD8
S3151FFFE0706DE2FF1F6DE2FF1F6DE2FF1F6DE2FF1FC8
S3151FFFE0806DE2FF1F6DE2FF1F6DE2FF1F6DE2FF1FB8
S3151FFFE0906DE2FF1F6DE2FF1F6DE2FF1F6DE2FF1FA8
S3151FFFE0A06DE2FF1F6DE2FF1F6DE2FF1F6DE2FF1F98
S3151FFFE0B06DE2FF1F6DE2FF1F6DE2FF1F6DE2FF1F88
S3151FFFE0C000F002F800F03EF80CA030C808382418FC
S3151FFFE0D02D18A246671EAB4654465D46AC4201D17C
S3151FFFE0E000F030F87E460F3E0FCCB6460126334270
S3151FFFE0F000D0FB1AA246AB4633431847480500001C
S3151FFFE10068050000103A02D378C878C1FAD85207BB
S3151FFFE11001D330C830C101D504680C6070470000B9
S3151FFFE1200023002400250026103A01D378C1FBD80F
S3151FFFE130520700D330C100D50B6070471FB51FBDF7
S3151FFFE14010B510BD00F03AFA1146FFF7F7FF00F0C2
S3151FFFE15024F800F052FA03B4FFF7F2FF03BC00F0F6
S3151FFFE16057FA00000021124A116011E00021104AE0
S3151FFFE170116004E00E490968491C0D4A11600C49DC
S3151FFFE18009688142F6D30A490968491C084A116082
S3151FFFE190074909688142E9D3704700F00DF806E089
S3151FFFE1A000F033F800F042F80248FFF7DBFFF7E70E
S3151FFFE1B00040002020A107001F48806B0321090391
S3151FFFE1C008431D49886388151C4948611C494863D4
S3151FFFE1D01C4800681C4908601A4840681A494031A4
S3151FFFE1E0086018480068184948611648406816496C
S3151FFFE1F0403148617047134800681349886070476C
S3151FFFE200104800681049486070470E4800680E495D
S3151FFFE210C86070470B4840680B494031886070479C
S3151FFFE22008484068084940314860704705484068BC
S3151FFFE23005494031C86070470080044000C0044054
S3151FFFE24040D004403CE6FF1FC0F00F400B488546F9
S3151FFFE25072B60B480B49016062B60B4880470B48E5
S3151FFFE2600047FEE7FEE7FEE7FEE7FEE7FEE70000E5
S3151FFFE27007480849064A084B7047000068410020B7
S3151FFFE28008ED00E000E0FF1F9DE2FF1FC1E0FF1F3B
S3151FFFE2906840002068410020684000200020674931
S3151FFFE2A00860012040046549C0394860062064495B
S3151FFFE2B00870084640784021084061494870084663
S3151FFFE2C0C0788006800E202108435D49C8708020D4
S3151FFFE2D05C49087000205A490871487100BF5848A9
S3151FFFE2E08079102108400028F9D000BF5448807953
S3151FFFE2F00C2108400028F9D1704770B550480078A7
S3151FFFE300C0210840002868D14D4840794021084068
S3151FFFE31000284ED14A48007804210840002815D10D
S3151FFFE320494C4748007838210840C10801208840DA
S3151FFFE330C5B22946204600F091F80446404840786A
S3151FFFE34030210840002803D0640901E00124E403BB
S3151FFFE3503B48C078E0210840C106C90E002926D1D7
S3151FFFE3604011030000F05BF90805090D1115191D72
S3151FFFE37020230520C00144431AE005200002444321
S3151FFFE38016E00F20C001444312E00520400244431C
S3151FFFE3900EE0B720800044430AE0B720C000444385
S3151FFFE3A006E02A48444303E02948444300E000BFF0
S3151FFFE3B038E023480079C006C00E451C294622486F
S3151FFFE3C000F04CF804461E484079C006C00E0546AD
S3151FFFE3D0183520466843044624E019480078C021B3
S3151FFFE3E00840402815D116484078C007C00F00289F
S3151FFFE3F002D10124E40315E01148007A0E221040D2
S3151FFFE4004208012090400146124800F027F80446B3
S3151FFFE41008E00B480078C0210840802801D10A4C2C
S3151FFFE42000E070BD0548C0384068000F411C2046FC
S3151FFFE43000F014F80849086000BFF2E700810440A6
S3151FFFE440004006400050064000127A009508000063
S3151FFFE450710B000000093D00044000200022030944
S3151FFFE4608B422CD3030A8B4211D300239C464EE0CB
S3151FFFE47003460B433CD4002243088B4231D3030987
S3151FFFE4808B421CD3030A8B4201D394463FE0C30939
S3151FFFE4908B4201D3CB01C01A524183098B4201D351
S3151FFFE4A08B01C01A524143098B4201D34B01C01A3C
S3151FFFE4B0524103098B4201D30B01C01A5241C308B4
S3151FFFE4C08B4201D3CB00C01A524183088B4201D323
S3151FFFE4D08B00C01A524143088B4201D34B00C01A0F
S3151FFFE4E05241411A00D201465241104670475DE024
S3151FFFE4F0CA0F00D04942031000D3404253400022C7
S3151FFFE5009C4603098B422DD3030A8B4212D3FC224F
S3151FFFE510890112BA030A8B420CD3890192118B42CE
S3151FFFE52008D3890192118B4204D389013AD09211E4
S3151FFFE53000E08909C3098B4201D3CB01C01A52419F
S3151FFFE54083098B4201D38B01C01A524143098B4268
S3151FFFE55001D34B01C01A524103098B4201D30B0151
S3151FFFE560C01A5241C3088B4201D3CB00C01A524176
S3151FFFE57083088B4201D38B00C01A5241D9D243085D
S3151FFFE5808B4201D34B00C01A5241411A00D201469A
S3151FFFE590634652415B10104601D34042002B00D504
S3151FFFE5A04942704763465B1000D3404201B50020C6
S3151FFFE5B0C046C04602BD704770477047754600F09C
S3151FFFE5C023F8AE46050069465346C008C000854678
S3151FFFE5D018B020B5FFF74CFE60BC00274908B646AA
S3151FFFE5E00026C0C5C0C5C0C5C0C5C0C5C0C5C0C53E
S3151FFFE5F0C0C5403D49008D4670470446C046C046CC
S3151FFFE6002046FFF7A8FD000000487047084000207E
S3151FFFE61001491820ABBEFEE726000200704730B443
S3151FFFE6207446641E2578641CAB4204D3635D5B008E
S3151FFFE630E31830BC18471D46F8E70000200000000E
S3151FFFE6400000002064E6FF1F0040002008000000B6
S3151FFFE65004E1FF1F6CE6FF1F08400020600100005A
S3111FFFE66020E1FF1F0000000000008002E9
S7051FFFE0C13B
